{
  "_format": "hh-sol-artifact-1",
  "contractName": "AssetTransferWormhole",
  "sourceName": "contracts/AssetTransferWormhole.sol",
  "abi": [
    {
      "inputs": [
        {
          "internalType": "address",
          "name": "_wormholeRelayer",
          "type": "address"
        },
        {
          "internalType": "address",
          "name": "_owner",
          "type": "address"
        }
      ],
      "stateMutability": "nonpayable",
      "type": "constructor"
    },
    {
      "anonymous": false,
      "inputs": [
        {
          "indexed": false,
          "internalType": "address",
          "name": "sender",
          "type": "address"
        },
        {
          "indexed": false,
          "internalType": "uint16",
          "name": "targetChain",
          "type": "uint16"
        },
        {
          "indexed": false,
          "internalType": "address",
          "name": "targetAddress",
          "type": "address"
        },
        {
          "indexed": false,
          "internalType": "uint256[]",
          "name": "assetIds",
          "type": "uint256[]"
        }
      ],
      "name": "AssetsTransfer",
      "type": "event"
    },
    {
      "inputs": [
        {
          "internalType": "string",
          "name": "_name",
          "type": "string"
        },
        {
          "internalType": "uint256",
          "name": "_assetType",
          "type": "uint256"
        },
        {
          "internalType": "uint256",
          "name": "_price",
          "type": "uint256"
        }
      ],
      "name": "addAsset",
      "outputs": [],
      "stateMutability": "nonpayable",
      "type": "function"
    },
    {
      "inputs": [],
      "name": "assetCounter",
      "outputs": [
        {
          "internalType": "uint256",
          "name": "",
          "type": "uint256"
        }
      ],
      "stateMutability": "view",
      "type": "function"
    },
    {
      "inputs": [
        {
          "internalType": "uint256",
          "name": "",
          "type": "uint256"
        }
      ],
      "name": "assets",
      "outputs": [
        {
          "internalType": "uint256",
          "name": "id",
          "type": "uint256"
        },
        {
          "internalType": "string",
          "name": "name",
          "type": "string"
        },
        {
          "internalType": "uint256",
          "name": "AssetType",
          "type": "uint256"
        },
        {
          "internalType": "uint256",
          "name": "price",
          "type": "uint256"
        }
      ],
      "stateMutability": "view",
      "type": "function"
    },
    {
      "inputs": [
        {
          "internalType": "uint256",
          "name": "_assetId",
          "type": "uint256"
        }
      ],
      "name": "buyAsset",
      "outputs": [],
      "stateMutability": "payable",
      "type": "function"
    },
    {
      "inputs": [
        {
          "internalType": "address",
          "name": "_player",
          "type": "address"
        }
      ],
      "name": "getAllAssetsOfPlayer",
      "outputs": [
        {
          "internalType": "uint256[]",
          "name": "",
          "type": "uint256[]"
        }
      ],
      "stateMutability": "view",
      "type": "function"
    },
    {
      "inputs": [],
      "name": "owner",
      "outputs": [
        {
          "internalType": "address",
          "name": "",
          "type": "address"
        }
      ],
      "stateMutability": "view",
      "type": "function"
    },
    {
      "inputs": [
        {
          "internalType": "address",
          "name": "",
          "type": "address"
        },
        {
          "internalType": "uint256",
          "name": "",
          "type": "uint256"
        }
      ],
      "name": "playerAssetExist",
      "outputs": [
        {
          "internalType": "bool",
          "name": "",
          "type": "bool"
        }
      ],
      "stateMutability": "view",
      "type": "function"
    },
    {
      "inputs": [
        {
          "internalType": "address",
          "name": "",
          "type": "address"
        },
        {
          "internalType": "uint256",
          "name": "",
          "type": "uint256"
        }
      ],
      "name": "playerAssetIds",
      "outputs": [
        {
          "internalType": "uint256",
          "name": "",
          "type": "uint256"
        }
      ],
      "stateMutability": "view",
      "type": "function"
    },
    {
      "inputs": [
        {
          "internalType": "uint16",
          "name": "targetChain",
          "type": "uint16"
        },
        {
          "internalType": "uint256",
          "name": "gasLimit",
          "type": "uint256"
        }
      ],
      "name": "quoteCrossChainAsset",
      "outputs": [
        {
          "internalType": "uint256",
          "name": "cost",
          "type": "uint256"
        }
      ],
      "stateMutability": "view",
      "type": "function"
    },
    {
      "inputs": [
        {
          "internalType": "bytes",
          "name": "payload",
          "type": "bytes"
        },
        {
          "internalType": "bytes[]",
          "name": "",
          "type": "bytes[]"
        },
        {
          "internalType": "bytes32",
          "name": "",
          "type": "bytes32"
        },
        {
          "internalType": "uint16",
          "name": "sourceChain",
          "type": "uint16"
        },
        {
          "internalType": "bytes32",
          "name": "",
          "type": "bytes32"
        }
      ],
      "name": "receiveWormholeMessages",
      "outputs": [],
      "stateMutability": "payable",
      "type": "function"
    },
    {
      "inputs": [
        {
          "internalType": "uint16",
          "name": "targetChain",
          "type": "uint16"
        },
        {
          "internalType": "address",
          "name": "targetAddress",
          "type": "address"
        },
        {
          "internalType": "uint256[]",
          "name": "_assetsIds",
          "type": "uint256[]"
        },
        {
          "internalType": "uint256",
          "name": "gasLimit",
          "type": "uint256"
        }
      ],
      "name": "syncCrossChainAsset",
      "outputs": [],
      "stateMutability": "payable",
      "type": "function"
    },
    {
      "inputs": [],
      "name": "wormholeRelayer",
      "outputs": [
        {
          "internalType": "contract IWormholeRelayer",
          "name": "",
          "type": "address"
        }
      ],
      "stateMutability": "view",
      "type": "function"
    }
  ],
  "bytecode": "0x60a0346100a257601f6113fa38819003918201601f19168301916001600160401b038311848410176100a75780849260409485528339810103126100a257610052602061004b836100bd565b92016100bd565b6001600160a01b03918216608052600080546001600160a01b0319169190921617905560405161132890816100d282396080518181816109c301528181610a2e01528181610ccc0152610eb50152f35b600080fd5b634e487b7160e01b600052604160045260246000fd5b51906001600160a01b03821682036100a25756fe60806040526004361015610013575b600080fd5b60003560e01c80630d3b39a314610103578063110d35b8146100fa5780632181dd27146100f157806339677b68146100e85780634b918786146100df5780634ee0e040146100d6578063529dca32146100cd578063763f194d146100c45780638da5cb5b146100bb578063ce386781146100b2578063cf35bdd0146100a95763da25b725146100a157600080fd5b61000e6109ac565b5061000e610946565b5061000e610793565b5061000e61072e565b5061000e6106d0565b5061000e6105d7565b5061000e610526565b5061000e610507565b5061000e6104d7565b5061000e610464565b5061000e610305565b5061000e6101d1565b50634e487b7160e01b600052604160045260246000fd5b90601f801991011681019081106001600160401b0382111761014457604052565b61014c61010c565b604052565b60405190608082018281106001600160401b0382111761014457604052565b6020906001600160401b03811161018d575b601f01601f19160190565b61019561010c565b610182565b9291926101a682610170565b916101b46040519384610123565b82948184528183011161000e578281602093846000960137010152565b503461000e57606036600319011261000e576004356001600160401b03811161000e573660238201121561000e5761021390369060248160040135910161019a565b60005460443591906001600160a01b031633036102b55781156102835761026961026e9260015490610243610151565b938285526020850152602435604085015260608401526000526002602052604060002090565b61104b565b61028161027c600154610ab0565b600155565b005b60405162461bcd60e51b815260206004820152600a60248201526905f7072696365203e20360b41b6044820152606490fd5b60405162461bcd60e51b815260206004820152602260248201527f4f6e6c79206f776e65722063616e20706572666f726d2074686973206163746960448201526137b760f11b6064820152608490fd5b50602036600319011261000e5760043560015481101561041c57336000908152600460205260409020610359906103539061034c9084905b90600052602052604060002090565b5460ff1690565b15611153565b610383606061037a610375846000526002602052604060002090565b61119f565b015134146111f6565b610400600091828080806103af6103a36103a3835460018060a01b031690565b6001600160a01b031690565b81903415610412575b3491f115610405575b3360009081526004602052604090206103ec906103df90839061033d565b805460ff19166001179055565b336000908152600360205260409020610e64565b604051f35b61040d6109f2565b6103c1565b6108fc91506103b8565b60405162461bcd60e51b815260206004820152600f60248201526e125b9d985b1a5908105cdcd95d1259608a1b6044820152606490fd5b6001600160a01b0381160361000e57565b503461000e57604036600319011261000e5760043561048281610453565b60018060a01b031660005260046020526040600020602435600052602052602060ff604060002054166040519015158152f35b6004359061ffff8216820361000e57565b6064359061ffff8216820361000e57565b503461000e57604036600319011261000e5760206104ff6104f66104b5565b602435906109ff565b604051908152f35b503461000e57600036600319011261000e576020600154604051908152f35b50608036600319011261000e5761053b6104b5565b6024359061054882610453565b604435906001600160401b039081831161000e573660238401121561000e57826004013591821161000e573660248360051b8501011161000e57610281936024606435940191610c1b565b9080601f8301121561000e578160206105ae9335910161019a565b90565b6020906001600160401b0381116105ca575b60051b0190565b6105d261010c565b6105c3565b5060a036600319011261000e576001600160401b0360043581811161000e57610604903690600401610593565b602480359083821161000e573660238301121561000e578160040135610629816105b1565b946106376040519687610123565b8186528260208097019260051b8501019336851161000e57838101925b85841061066d57610281876106676104c6565b50610ea9565b833583811161000e5788916106888392883691870101610593565b815201930192610654565b50634e487b7160e01b600052603260045260246000fd5b80548210156106c3575b60005260206000200190600090565b6106cb610693565b6106b4565b503461000e57604036600319011261000e576004356106ee81610453565b6001600160a01b031660009081526003602052604090208054602435919082101561000e5760209161071f916106aa565b90549060031b1c604051908152f35b503461000e57600036600319011261000e576000546040516001600160a01b039091168152602090f35b6020908160408183019282815285518094520193019160005b82811061077f575050505090565b835185529381019392810192600101610771565b503461000e5760208060031936011261000e576004356107b281610453565b6001600160a01b03166000908152600382526040808220905181548082529183528383208185019491939092915b82821061080757610803856107f781890382610123565b60405191829182610758565b0390f35b8354865294850194600193840193909101906107e0565b90600182811c9216801561084e575b602083101461083857565b634e487b7160e01b600052602260045260246000fd5b91607f169161082d565b906040519182600082549261086c8461081e565b9081845260019485811690816000146108db5750600114610898575b505061089692500383610123565b565b9093915060005260209081600020936000915b8183106108c357505061089693508201013880610888565b855488840185015294850194879450918301916108ab565b91505061089694506020925060ff191682840152151560051b8201013880610888565b60005b8381106109115750506000910152565b8181015183820152602001610901565b9060209161093a815180928185528580860191016108fe565b601f01601f1916010190565b503461000e57602036600319011261000e5760043560005260026020526040600020805461097660018301610858565b916003600282015491015461099d6040519485948552608060208601526080850190610921565b91604084015260608301520390f35b503461000e57600036600319011261000e576040517f00000000000000000000000000000000000000000000000000000000000000006001600160a01b03168152602090f35b506040513d6000823e3d90fd5b6040805163c23ee3c360e01b815261ffff909216600483015260006024830152604482019290925290816064817f00000000000000000000000000000000000000000000000000000000000000006001600160a01b03165afa908115610a9c575b600091610a6b575090565b906040823d8211610a94575b81610a8460409383610123565b81010312610a9157505190565b80fd5b3d9150610a77565b610aa46109f2565b610a60565b1561000e57565b6000198114610abf5760010190565b634e487b7160e01b600052601160045260246000fd5b9190811015610ae55760051b0190565b6105d2610693565b9291610af8826105b1565b91610b066040519384610123565b829481845260208094019160051b810192831161000e57905b828210610b2c5750505050565b81358152908301908301610b1f565b90610b53602091949394604084526040840190610921565b6001600160a01b03909416910152565b9081602091031261000e57516001600160401b038116810361000e5790565b94610bb560c0959897939461ffff809416885260018060a01b03809616602089015260e0604089015260e0880190610921565b976000606088015260808701521660a085015216910152565b6001600160a01b03918216815261ffff9092166020830152909116604082015260806060820181905281018390526001600160fb1b03831161000e5760a09260051b809284830137010190565b92919093610c2981856109ff565b90610c35823414610aa9565b60005b848110610d50575091856020867f4e11ce1e9a9c1d7437474c76b3fa4e6720c99493064f539f9982c79db18e956798979694610d1096610c97610ca5610c87610c82368b8b610aed565b61123e565b6040519283913390898401610b3b565b03601f198101835282610123565b610cc8604051968795869485946312d729bd60e21b865233938360048801610b82565b03917f00000000000000000000000000000000000000000000000000000000000000006001600160a01b03165af18015610d43575b610d15575b506040519485943386610bce565b0390a1565b610d359060203d8111610d3c575b610d2d8183610123565b810190610b63565b5038610d02565b503d610d23565b610d4b6109f2565b610cfd565b336000908152600460205260409020610d8990610d859061034c90610d76858a8a610ad5565b35600052602052604060002090565b1590565b610d9b57610d9690610ab0565b610c38565b60405162461bcd60e51b815260206004820152600f60248201526e185cdcd95d081b9bdd08199bdd5b99608a1b6044820152606490fd5b919060408382031261000e5782516001600160401b03811161000e5783019080601f8301121561000e57815191610e0883610170565b91610e166040519384610123565b8383526020848301011161000e57602092610e36918480850191016108fe565b9201516105ae81610453565b6020918151811015610e57575b60051b010190565b610e5f610693565b610e4f565b8054610e8291600160401b821015610e9c575b6001820181556106aa565b819291549060031b600019811b9283911b16911916179055565b610ea461010c565b610e77565b6001600160a01b0391907f000000000000000000000000000000000000000000000000000000000000000083163303610fbb57610ef281602080610efc94518301019101610dd2565b9390931692611287565b9160005b8351811015610fb557610f5490610f4b610d8561034c610f328660018060a01b03166000526004602052604060002090565b610f3c858a610e42565b51600052602052604060002090565b610f5957610ab0565b610f00565b6001600160a01b0383166000908152600460205260409020610f83906103df90610f3c8489610e42565b6001600160a01b0383166000908152600360205260409020610fb090610fa98388610e42565b5190610e64565b610ab0565b50509050565b60405162461bcd60e51b815260206004820152601460248201527313db9b1e481c995b185e595c88185b1b1bddd95960621b6044820152606490fd5b90601f811161100557505050565b600091825260208220906020601f850160051c83019410611041575b601f0160051c01915b82811061103657505050565b81815560010161102a565b9092508290611021565b9080518255600190818301602080830151938451916001600160401b038311611146575b6110838361107d865461081e565b86610ff7565b80601f84116001146110d157509180809260609695946003986000946110c6575b50501b9160001990871b1c19161790555b604081015160028501550151910155565b0151925038806110a4565b91939495601f1984166110e987600052602060002090565b936000905b82821061112f5750509160039795939185606098969410611117575b505050811b0190556110b5565b015160001983891b60f8161c1916905538808061110a565b8088869782949787015181550196019401906110ee565b61114e61010c565b61106f565b1561115a57565b60405162461bcd60e51b815260206004820152601d60248201527f706c6179657220616c72656164792068617665207468652041737365740000006044820152606490fd5b90604051608081018181106001600160401b038211176111e9575b604052606060038294805484526111d360018201610858565b6020850152600281015460408501520154910152565b6111f161010c565b6111ba565b156111fd57565b60405162461bcd60e51b8152602060048201526019602482015278125b98dbdc9c9958dd0811551208185b5bdd5b9d081cd95b9d603a1b6044820152606490fd5b60405190816020918282018382519192019360005b828110611270575050506105ae925003601f198101835282610123565b855184529481019486945092810192600101611253565b8051600590811c90611298826105b1565b926112a66040519485610123565b828452601f196112b5846105b1565b0191602092368487013760005b8481106112d157505050505090565b80846112ed92841b850101516112e78289610e42565b52610ab0565b6112c256fea26469706673582212206f2df534e17a5537b26fba104d74e6d07ccb8c8839cb5e522786feb6c9d4a0d464736f6c63430008100033",
  "linkReferences": {},
  "deployedLinkReferences": {}
}